:100000009DC00000B7C00000B5C00000B3C0000034
:10001000B1C00000AFC00000ADC00000ABC0000028
:10002000A9C00000A7C0000055C20000A3C0000086
:10003000A1C000009FC000009DC000009BC0000048
:1000400099C0000097C0000095C0000093C0000058
:1000500091C000008FC000008DC000008BC0000068
:1000600089C0000087C0000085C0000083C0000078
:1000700081C000007FC000007DC000007BC0000088
:1000800079C0000077C0000075C0000073C0000098
:1000900071C000006FC000006DC000006BC00000A8
:1000A00069C0000067C0000065C0000005010904C8
:1000B000A1010901A100050109300931159C256440
:1000C000750895028182C0050919012910150025BE
:1000D00001750195108102750195008101C0120121
:1000E000100100000008EB034320010001020001A1
:1000F00009022200010100C03209040000010300CE
:1001000000000921110100012232000705810308C6
:100110000001040309040A034A006F006A006F002B
:1001200000001803570069006900200063006C009C
:1001300061007300730069006300000011241FBE9A
:10014000CFEFDAE0DEBFCDBF11E0A0E0B1E0E4EE3A
:10015000F2E102C005900D92AE30B107D9F711E07F
:10016000AEE0B1E001C01D92AF31B107E1F786D03A
:100170000C94700945CF5E9A08955E980895809119
:100180000B0190910C01009729F0019790930C01BD
:1001900080930B0108950895EF92FF920F931F93A0
:1001A000DF93CF93CDB7DEB728970FB6F894DEBFB5
:1001B0000FBECDBF78018901CE010196FDD79D818B
:1001C0009D3018F48A8182608A839C3218F089817C
:1001D000806889839E819C3018F48981806489833A
:1001E0009C3218F08A8181608A838981F801828338
:1001F0008A8183831082118284E090E0F7019183E9
:10020000808380E028960FB6F894DEBF0FBECDBF86
:10021000CF91DF911F910F91FF90EF90089580E0B3
:1002200091E00EC680E091E0D3D59091E200946019
:100230009093E20080FD02C090E401C090E08BB199
:100240009095806498239BB9089584B7877F84BF75
:1002500088E10FB6F89480936000109260000FBEA2
:1002600090E080E80FB6F89480936100909361006D
:100270000FBE569A5E9A16D10C944409E6DF5E983A
:10028000789480E091E0EAD4D6D4FBCFDA019330C1
:10029000B1F0943028F4913041F0923079F50AC0F1
:1002A000913211F1923251F524C0EEEDF0E022E1ED
:1002B00030E028C0E0EFF0E022E230E023C08130FF
:1002C00049F0813018F08230C9F40AC0E2E1F1E06F
:1002D000849103C0E6E1F1E08491282F30E012C060
:1002E000E2E2F1E08491F9CFE2E0F1E029E030E0F0
:1002F00009C0ECEAF0E022E330E004C0E0E0F0E026
:1003000020E030E0ED93FC93C9010895382F282FA9
:100310002CC02093E900231721F4762F942F50E06E
:1003200006C07091EC009091ED005091F00091FFAB
:100330001BC08091EB008E7F8093EB008091ED00DD
:1003400082708093ED008091EB0081608093EB00E0
:100350007093EC009093ED005093F0008091EE00CC
:1003600087FD02C080E008952F5F273090F2309320
:10037000E90081E008958091170188239CF404C06E
:10038000809116018823B9F08091E80082FFF8CFB0
:100390008091E8008B778093E800089580911601A2
:1003A000882349F08091E80080FFF8CF8091E80031
:1003B0008E778093E80008954091E4005091E50025
:1003C00024E68091EC0080FF05C08091E80080FF6A
:1003D00005C022C08091E80082FD1EC080911601F8
:1003E000882311F482E00895853011F483E00895A4
:1003F0008091EB0085FF02C081E008958091E400C8
:100400009091E50084179507E1F2222311F484E02E
:1004100008952150AC01D5CF80E00895EF92FF926E
:100420000F931F934AD051D008ED10E0F80180815E
:10043000982F9F7790838068808380818F7D8083D1
:1004400019BC10921601109214011092130110920F
:10045000120180EEE82EF12CF70180818B7F8083E2
:10046000F80180818160808380E060E042E04EDFBF
:10047000E1EEF0E080818E7F8083E2EEF0E080812B
:1004800081608083808188608083F70180818E7F96
:100490008083F8018081806180831F910F91FF909C
:1004A000EF900895E7EDF0E08081816080838AE439
:1004B00082BF81E080931501B1CFE8EDF0E080814B
:1004C0008E7F80831092E20008951092DA001092DD
:1004D000E10008951F920F920FB60F9211242F93EF
:1004E0003F934F935F936F937F938F939F93AF93BC
:1004F000BF93EF93FF938091E10082FF0AC0809148
:10050000E20082FF06C08091E1008B7F8093E100D2
:1005100036DE8091DA0080FF1EC08091D80080FF17
:100520001AC08091DA008E7F8093DA008091D90022
:1005300080FF0DC080E189BD89B5826089BD09B4A5
:1005400000FEFDCF81E08093160115DE04C019BCCA
:100550001092160112DE8091E10080FF18C0809198
:10056000E20080FF14C08091E2008E7F8093E20061
:100570008091E20080618093E2008091D8008062E7
:100580008093D80019BC85E080931601EDD180914D
:10059000E10084FF2EC08091E20084FF2AC080E148
:1005A00089BD89B5826089BD09B400FEFDCF809107
:1005B000D8008F7D8093D8008091E1008F7E80935A
:1005C000E1008091E2008F7E8093E2008091E20062
:1005D00081608093E20080911401882331F480913E
:1005E000E30087FD02C081E001C084E08093160132
:1005F000BBD18091E10083FF22C08091E20083FFA4
:100600001EC08091E100877F8093E10082E08093AB
:100610001601109214018091E1008E7F8093E10019
:100620008091E2008E7F8093E2008091E200806101
:100630008093E20080E060E042E068DE95D1FF91C7
:10064000EF91BF91AF919F918F917F916F915F914A
:100650004F913F912F910F900FBE0F901F901895C3
:100660000F931F93DF93CF93CDB7DEB7AC970FB641
:10067000F894DEBF0FBECDBF8091F10080931701CB
:100680008091F100809318018091F1009091F10028
:10069000E9E1F1E08093190190931A018091F10052
:1006A0009091F10080931B0193838091F1009091D0
:1006B000F10080931D019583B2DD8091E80083FFF6
:1006C0003AC18091170130911801353009F487C083
:1006D000363040F43130C9F1313070F0333009F048
:1006E0002AC133C0383009F4F8C0393009F407C1E1
:1006F000363009F020C199C0803821F0823809F0E5
:100700001AC108C09091120180911301882399F0B9
:10071000926011C080911B0187708093E9008091E5
:10072000EB0090E025E0969587952A95E1F7982FC4
:1007300091701092E9008091E800877F8093E80033
:100740009093F1001092F100D3C0882319F0823009
:1007500009F0F1C090E08F719070009721F002973E
:1007600009F0E9C00CC080911901813009F0E3C0A3
:1007700010921301333069F5809313012AC08091E0
:100780001901882331F520911B01277009F4D3C08A
:100790002093E9008091EB0080FF1BC0333021F4EF
:1007A0008091EB00806213C08091EB0080618093A8
:1007B000EB0081E090E002C0880F991F2A95E2F7D4
:1007C0008093EA001092EA008091EB0088608093A9
:1007D000EB001092E9008091E800877F8CC08823AD
:1007E00009F0A9C0109119011F770FB7F8948091F3
:1007F000E800877F8093E800BEDD8091E80080FFFD
:10080000FCCF8091E3008078812B8093E30080917E
:10081000E30080688093E300112311F482E001C0BB
:1008200083E0809316010FBF86C08058823008F0A5
:1008300082C08091190190911A0123E08C3D9207AA
:1008400009F033C083E08C838AE28B837FB7F8940E
:10085000DE0115966EE040E050E011E2E62FF0E098
:1008600010935700849140FF03C082958F706F5F93
:100870008F70282F30E08A3018F0C901C79602C067
:10088000C901C0968D939D934F5F5F4F44315105D1
:1008900029F77FBF8091E800877F8093E800CE0131
:1008A00003966AE270E061D012C060911B01AE0154
:1008B0004F5F5F4FEBDCBC01009709F43CC08091B7
:1008C000E800877F8093E80089819A81FAD080913F
:1008D000E8008B778093E8002EC0803861F5809126
:1008E000E800877F8093E800809114018093F100F5
:1008F0008091E8008E778093E8003DDD1CC088235E
:10090000D1F4909119019230B0F48091E800877F82
:100910008093E800909314012EDD809114018823C8
:1009200031F48091E30087FD02C081E001C084E0E2
:100930008093160177DC8091E80083FF0AC08091E4
:10094000EB0080628093EB008091E800877F8093CA
:10095000E800AC960FB6F894DEBF0FBECDBFCF91C6
:10096000DF911F910F91089508959C0140911D0101
:1009700050911E014617570718F4F90190E045C041
:100980006115710511F0AB01F8CF8091E8008E7709
:100990008093E80040E050E0F0CF8091160188237A
:1009A00009F445C0853009F444C08091E80083FF14
:1009B00002C081E008958091E80082FD32C08091FC
:1009C000E80080FF22C08091F3009091F200782F20
:1009D00060E0292F30E0262B372B07C081918093D0
:1009E000F100415050402F5F3F4F4115510519F024
:1009F0002830310598F390E02830310509F491E072
:100A00008091E8008E778093E8004115510529F622
:100A1000992319F606C080911601882341F085308C
:100A200041F08091E80082FFF6CF80E0089582E0F7
:100A3000089583E008959C016115710529F4809162
:100A4000E8008B778093E800F90127C080911601B8
:100A5000882399F1853099F18091E80083FF02C0E5
:100A600081E008958091E80082FFF0CF06C0809178
:100A7000F10081936150704059F02091F300809112
:100A8000F200322F20E090E0822B932B892B79F714
:100A90008091E8008B778093E80061157105B1F6CD
:100AA00006C080911601882341F0853041F0809185
:100AB000E80080FFF6CF80E0089582E0089583E0AB
:100AC00008959C0140911D0150911E014617570742
:100AD00018F4F90190E046C06115710511F0AB0101
:100AE000F8CF8091E8008E778093E80040E050E0F6
:100AF000F0CF80911601882309F447C0853009F4AE
:100B000046C08091E80083FF02C081E00895809193
:100B1000E80082FD34C08091E80080FF23C080910E
:100B2000F3009091F200782F60E0292F30E0262B1F
:100B3000372B08C084918093F1003196415050408A
:100B40002F5F3F4F4115510519F02830310590F3C3
:100B500090E02830310509F491E08091E8008E772B
:100B60008093E8004115510521F6992309F0C1CF82
:100B700006C080911601882341F0853041F08091B4
:100B8000E80082FFF6CF80E0089582E0089583E0D8
:100B90000895BF92CF92DF92EF92FF920F931F932F
:100BA000CF93DF93182F092F7B016A0105DCB82E44
:100BB0008823B1F5812F902F9C01E901C114D10444
:100BC00039F0F60180819181E81AF90AC80FD91F1E
:100BD00000E010E022C08091E80085FD16C0809101
:100BE000E8008E778093E800C114D10449F0F60143
:100BF00080819181800F911F9183808385E011C056
:100C00001AD0DADB882349F00CC089918093F10077
:100C10000894E108F1080F5F1F4FE114F104D9F6C1
:100C20008B2DDF91CF911F910F91FF90EF90DF906F
:100C3000CF90BF9008951F9380911601882361F093
:100C40001091E9001092E9008091E80083FF01C053
:100C500007DD17701093E9001F9108954F925F927E
:100C60006F927F928F929F92AF92BF92CF92DF92BC
:100C7000EF92FF920F931F93DF93CF9300D00F92C9
:100C8000CDB7DEB77C016DB67EB68091160184309B
:100C900009F085C0F70181818093E9008091E80027
:100CA00085FF7DC05DB64EB647818DB79EB7841B6C
:100CB00091090FB6F8949EBF0FBE8DBF0DB71EB73A
:100CC0000F5F1F4F19821B821A82C02E912EC801FE
:100CD00060E070E050E0FDD2C701BE016F5F7F4F62
:100CE00040E098018E010E5F1F4F56DA882EF70103
:100CF00081859285892B19F4AA24BB240BC020E09E
:100D0000F70183859485892B09F021E081E028276C
:100D1000A22EBB24F701058116810115110511F4DE
:100D2000DD2412C04A815B818C2D992DB801BBD284
:100D3000DD24009711F0DD24D394F7014781C80129
:100D40006C2D792D50E0BCD28A819B81892BF9F0E2
:100D5000882021F4DD2011F4AB28C9F0F70181854A
:100D600092859487838781818093E9008981882394
:100D700011F08093F1006A817B818C2D992D40E0E8
:100D800050E007DF8091E8008E778093E800852DA2
:100D9000942D9C010FB6F8943EBF0FBE2DBF0FB629
:100DA000F8947EBE0FBE6DBE0F900F900F90CF9146
:100DB000DF911F910F91FF90EF90DF90CF90BF9048
:100DC000AF909F908F907F906F905F904F9008951D
:100DD000CF93DF93DC010896FC0185E0EF011992C7
:100DE0008A95E9F781E018968C93189784EF91E043
:100DF0001A969C938E93199711963C91119712967F
:100E00006D917C91139714968C91882311F440E096
:100E100001C044E020E088E090E003C02F5F880F2D
:100E2000991F86179707D0F342602295207F422BA7
:100E3000832F61EC6BDA811181E0DF91CF9108950E
:100E40006F927F928F929F92AF92BF92CF92DF92DA
:100E5000EF92FF920F931F93DF93CF9300D00F92E7
:100E6000CDB7DEB76C016DB67EB68091E80083FF2A
:100E70000AC1F601808190E020911B0130911C0194
:100E80002817390709F0FFC080911801833009F451
:100E9000AAC0843030F4813071F0823009F0F3C0A0
:100EA000DAC08A3009F4BFC08B3009F4A9C0893098
:100EB00009F0E9C055C080911701813A09F0E3C0FB
:100EC0009DB68EB61B821A828091190110911A016B
:100ED0008983F60147818DB79EB7841B91090FB6B0
:100EE000F8949EBF0FBE8DBFEDB6FEB60894E11C10
:100EF000F11CBE2CAF2CC70160E070E050E0E9D1DE
:100F00001150C601BE016F5F7F4F412F97018E01C7
:100F10000E5F1F4F41D9F60125813681211531051C
:100F200029F04781C901B70150E0CAD11092E90008
:100F30008091E800877F8093E8006A817B818B2D18
:100F40009A2D13DD8091E8008B778093E800292D9E
:100F5000382DC9010FB6F8949EBF0FBE8DBF93C048
:100F600080911701813209F08EC09DB68EB6009136
:100F70001D0110911E01A0901901B0901A018DB7AA
:100F80009EB7801B910B0FB6F8949EBF0FBE8DBF0E
:100F9000EDB6FEB60894E11CF11C8091E800877F55
:100FA0008093E800C701B80146DD8091E8008E77A4
:100FB0008093E80080E090E0AA2011F081E090E0CA
:100FC000BA94E80EF91E081B190BC6016A2D4B2DA9
:100FD0009701E1D8892D982D9C010FB6F8943EBF5A
:100FE0000FBE2DBF50C080911701813A09F04BC050
:100FF0008091E800877F8093E800F60180853BC000
:1010000080911701813209F03EC08091E800877F0E
:101010008093E800B0D990E080911901811191E0AE
:10102000F601908730C080911701813261F580917F
:10103000E800877F8093E8009ED980911901909104
:101040001A01807076E0969587957A95E1F7F6011A
:101050009287818718C080911701813AA1F480910D
:10106000E800877F8093E800F60181859285969558
:101070008795969587958093F1008091E8008E770B
:101080008093E80078D90FB6F8947EBE0FBE6DBE8F
:101090000F900F900F90CF91DF911F910F91FF90C4
:1010A000EF90DF90CF90BF90AF909F908F907F9008
:1010B0006F9008951092B90088E48093B800089565
:1010C000982F84EA8093BC008091BC0087FFFCCFFE
:1010D0008091B900887F883021F0803111F081E063
:1010E00008959093BB0084E88093BC008091BC007D
:1010F00087FFFCCF9091B900987F983111F480E080
:10110000089580E0903409F081E00895982F44EA32
:1011100034E824E94093BC008091BC0087FFFCCFF9
:101120008091B900887F883011F0803199F79093D1
:10113000BB003093BC008091BC0087FFFCCF809146
:10114000B900887F803211F0883539F42093BC00D3
:101150008091BC0084FDFCCFDDCF089584E98093AD
:10116000BC008091BC0084FDFCCF08958093BB003F
:1011700084E88093BC008091BC0087FFFCCF809105
:10118000B90090E0887F883209F091E0892F0895B6
:1011900084EC8093BC008091BC0087FFFCCF8091E1
:1011A000BB00089584E88093BC008091BC0087FF59
:1011B000FCCF8091BB000895CF92DF92EF92FF9217
:1011C0000F931F93DF93CF9300D000D000D0CDB703
:1011D000DEB77C0184EA74DF80E0C8DFBFDF80E235
:1011E00093E00197F1F785EA91DF8E010F5F1F4FC2
:1011F00096E0C92ED12CCC0EDD1ECADFF8018193FA
:101200008F01EC15FD05C9F7CDDF182F8E83A6DF02
:101210008D818095F7018083109511832B815A81F0
:101220004981852F829586958770922F991F9927DE
:10123000991F890F942F969596959695890F82837D
:10124000822F8F7183834F7344835F73558330E0A4
:101250002076307035952795359527958C81829528
:1012600086958770820F8683578326960FB6F894EB
:10127000DEBF0FBECDBFCF91DF911F910F91FF90C9
:10128000EF90DF90CF90089515DF84EA19DF80EFAB
:101290006DDF85E56BDF62DF84EA12DF8BEF66DFEF
:1012A00080E064DF5BCFFB01DC0104C08D91019025
:1012B000801921F441505040C8F7881B990B0895BC
:1012C000FB01DC0102C001900D9241505040D8F763
:1012D0000895DC0101C06D9341505040E0F708953E
:0412E000F894FFCFB0
:0E12E40000010800000E0104000000000000E0
:00000001FF
